:020000041000EA
:1000000000B5324B212058609868022188439860DF
:10001000D860186158612E4B002199600221596106
:100020000121F02299502B49196001219960352056
:1000300000F044F80222904214D00621196600F024
:1000400034F8196E01211966002018661A6600F04E
:100050002CF8196E196E196E052000F02FF8012189
:100060000842F9D1002199601B49196000215960AB
:100070001A491B48016001219960EB211966A021F2
:10008000196600F012F800219960164914480160C1
:100090000121996001BC002800D000471248134993
:1000A000086003C880F30888084703B5996A0420EC
:1000B0000142FBD001200142F8D103BD02B5186610
:1000C0001866FFF7F2FF186E186E02BD00000240BE
:1000D000000000180000070000035F00212200005C
:1000E000F4000018222000A00001001008ED00E03C
:1000F00000000000000000000000000074B24E7A12
:1001000000200420F7010010C3010010C5010010F9
:10011000C1010010C1010010C1010010C101001097
:10012000C1010010C1010010C1010010C701001081
:10013000C1010010C1010010C9010010CB01001065
:10014000CD010010CD010010CD010010CD01001037
:10015000CD010010CD010010CD010010CD01001027
:10016000CD010010CD010010CD010010CD01001017
:10017000CD010010CD010010CD010010CD01001007
:10018000CD010010CD010010CD010010CD010010F7
:10019000CD010010CD010010CD010010CD010010E7
:1001A000CD010010CD010010CD010010CD010010D7
:1001B000CD010010CD010010CD010010CD010010C7
:1001C00000BE00BE00BE00BE00BE00BE00F04BF888
:1001D000103800BEF2EB8871A0100810C41008108F
:1001E0003402001090A31AE700202149086006C8D5
:1001F00081F3088810471F48006800282FD10DA4FC
:100200000ECC002902D000F012F8F9E71A491B4A77
:10021000002000E001C19142FCD1194988471949E9
:1002200088471949884700BEFDE701C901C29A42C3
:10023000FBD37047C4100810C0000020D82600204F
:10024000DC3608100000042000000420DC36081012
:1002500000100420001004200000000070470B482C
:1002600003F0AAF90047EFF30580C0B27047000021
:1002700008ED00E0000000D0D826002040F0022069
:10028000A117001005050010C518001057560000F2
:1002900006005250ABB36053B08F071006005250A7
:1002A000861C0302C08F0710060052505422A29DE4
:1002B000D08F071005005250DE65F468DC36081058
:1002C000F8B5C04610B5064C2378002B07D1054B76
:1002D000002B02D0044800E000BF0123237010BDB2
:1002E000E028002000000000F8530510044B10B572
:1002F000002B03D00349044800E000BF10BDC046F6
:1003000000000000E4280020F85305107047C046A4
:1003100010B5024846F0C6F910BDC04660D10220B3
:100320007047C046F0B5C64600B5454C84B023784A
:10033000BFF35B8FDB0749D54249434D4C780B78BF
:100340008A7824021C43CB78120414431B062343EF
:100350005B181A683D489A1A3D4C11882860236042
:10036000042902D99288002A08D10022032339499E
:1003700006F058FF04B080BCB846F0BD9A58032A76
:10038000F4D1354E3378BFF35B8FDB0749D50122BB
:100390001100324F3B78BFF35B8F194088461A42F9
:1003A00020D02F4E2F4C3000266046F0CBFA00288C
:1003B00032D10021206846F0ABF92B4B00211860A8
:1003C000206846F0FBF9294B1860D3E720004BF07A
:1003D000F7F90028B0D020004BF00EFA244852F074
:1003E000DFFEA9E738004BF0EBF90028D9D04346EF
:1003F000216802932B681A4E0193AA239B021D4A7F
:10040000009330001C4B46F0EBF838004BF0F4F949
:100410001A4852F0C5FEC5E72868194906F002FFE0
:10042000A8E730004BF0CCF90028B0D0114808F014
:10043000BDFB30004BF0E0F9124852F0B1FEA6E7E8
:1004400004290020F85305102CD102202814002084
:1004500038D10220388C07100829002000290020FC
:1004600060D102201829002034D102203CD1022082
:100470000D030010F8D102201C29002011030010E8
:10048000808C071021030010124BC42170B51C682A
:1004900000238900C2562569EA5401338B42F9D101
:1004A0000D4B186846F01EFB00280BD10B4B19684A
:1004B0000B4B186800230A69D256C2540133242B0F
:1004C000F9D170BD074B0849186806F0ABFE002053
:1004D000F7E7C04634D10220182900203CD1022081
:1004E00030D102202CD102209C8C071010B5242082
:1004F00004F068FB014B186010BDC04630D10220EB
:100500007047C046F8B5DE4657464E464546E0B50C
:1005100004F0A0FDFA20800000F074FD474804F0CC
:100520006FFC474C2378BFF35B8FDB0779D5FFF770
:10053000F9FE444B444F9846444B454E9946454B33
:10054000454D9A46454B9B46404604F059FC48466B
:1005500004F056FC5046FFF797FF0024386000E097
:100560003868005703F05EFB00223D4B03F0D0FAE1
:1005700000223C4B03F0DEFA00223B4B03F0DAFA98
:1005800002000B002800315D013404F057FD242CDB
:10059000E6D1584604F034FC3448FFF775FF0024D8
:1005A000386000E03868005703F03CFB00222C4B19
:1005B00003F0AEFA00222B4B03F0BCFA00222A4BC8
:1005C00003F0B8FA02000B002800315D013404F09A
:1005D00035FD242CE6D1264804F012FC2548FFF70F
:1005E00053FF0024386000E03868005703F01AFB1E
:1005F00000221B4B03F08CFA00221A4B03F09AFAEC
:100600000022194B03F096FA02000B002800315D1E
:10061000013404F013FD242CE6D10A2004F0E2FB9F
:1006200092E720004BF0CCF8002800D17FE72000B3
:100630004BF0E2F8104852F0B3FD78E7BC8C07109D
:10064000FC280020CC8C071010F00220D48C07105E
:100650005C1D00202C140020D88C0710F08C071093
:10066000000060400000703F000059403C1700202F
:10067000F48C07104C1A00200105001010B59020D2
:1006800004F0A0FA064B1860242004F09BFA054BF6
:100690001860242004F096FA034B186010BDC04681
:1006A0000CF0022010F0022014F0022010B504F02B
:1006B00011FD10BD094A830094464022634410B5E1
:1006C0001C68C0006240C0241440802252011343C1
:1006D0001C60034B9C466044416010BD04C0014057
:1006E00000400140F8B5CE464746914680B5EFF34D
:1006F000108C72B6104D2B68002BFCD0BFF35F8FAF
:10070000CB08C45CC7180720260001230840C64058
:100710001A00324033420BD1834023433B70BFF376
:100720005F8F2A608CF31088C0BCB946B046F8BD14
:10073000484601F0C9F8C0462C0100D0F8B547463C
:10074000CE46884680B5EFF3108C72B6214D2C68EA
:10075000002CFCD0BFF35F8F9A422DD8D408055DE2
:10076000071907242E001440E640F1071ED5072183
:100770008946063908E0D408055D07194C462E0065
:100780001440E640314211D001329342F3D20120AD
:100790004042BFF35F8F00220E4B1A608CF310882B
:1007A000002811DBC0BCB946B046F8BD0123A34008
:1007B0001D4310003D70ECE7BFF35F8F00232B60FB
:1007C0008CF31088012040424346002BEAD0089861
:1007D00001F07AF82C0100D00021044B044ABFF349
:1007E0005F8F02C39342FAD17047C046000100D028
:1007F000800100D0044A1078431CDBB2172B00D9CB
:10080000102313707047C046801D002000B5054BB3
:1008100083B00100009318221F230348FFF78EFFC7
:1008200003B000BDF88C07100CE90220024B1868D9
:100830008007C00F7047C04600C00640F8B50400EE
:1008400006200D0001F0CEF9002844D02A4B2B4998
:10085000E21853425A418023DB039C469205284B01
:1008600062441A60274B1A6010008B689843FBD1D2
:10087000214B8021E3185A425341234A5B0049002F
:100880009952062001F0AEF92900C00002F0F2FEF4
:10089000C30921D140270121260080256162A3627E
:1008A00000232C36AD0135432B60062001F09AF968
:1008B0003900800002F0DEFE6023E26A53406E22BF
:1008C0001A4080235B0133431A60104B23631023CB
:1008D0002B600D3BA364F8BD0D4A934203D900235E
:1008E0000C4F0D49D8E77F221040013040089F018E
:1008F00019003F180300CFE70080FCBF00C0004094
:1009000000E0004000F0004034F00220010300004D
:10091000FEFF0000C0FF3F00FFFF000083680B48A0
:1009200010B5844661446244090112019A185918AD
:1009300054684B6801209C4201D802D00020C0B20C
:1009400010BD12680B689A42F9D8F7E7FFFFFF0F56
:1009500040BF002000217047F8B5DE4657464E469E
:100960004546E0B51F000DAB1B7805009B460C9B70
:100970001600002B45D03F4A0C9B9446DBB2AA6878
:100980009A460C9B2C68634494461B010A9A634464
:100990009A600B9A1E60DA600C9A5F6094460C9B1A
:1009A00000225B006344033B9846236843449A70EB
:1009B0005A701A70637B9946002B42D05246190038
:1009C000A06863689847226800282BD04B465B00DC
:1009D0004B44033BD1188C46414648465118887019
:1009E000D35C002B42D15346624613704B4663736F
:1009F0000C9B994527D0F0BCBB46B246A946A04601
:100A0000F8BD0268947B002CF5D0116863008C4619
:100A10001B196344033B5B789373002B00D1D373A2
:100A20000C94A8E74346D1184B4650465B004B4414
:100A3000033BD31898704046125C002A18D14B46ED
:100A40000B705346637332003B00287D00F020FC9E
:100A5000041E06D05B46002B03D15146286800F0E7
:100A600061FE0E9B002BC6D01C70C4E74B70BAE72A
:100A70005A70E4E7FFFFFF0FF0B5DE464E465746DB
:100A800045460023E0B58DB00A936B4B8200D358E6
:100A90000B90994600239B464B46079300F098FB2A
:100AA000079C06000F006268EFF3108572B61368AA
:100AB000002BFCD022000794BFF35F8F2468637B78
:100AC0009946002B67D092685C4B90464B441B01C3
:100AD000984443461A685B6810001900801BB941AE
:100AE00000295FDD0B9800F0D3FB00230026984619
:100AF00000279A46079C6368BFF35F8F5A461A60C7
:100B000085F310885346002B08D10028C6D10DB0BC
:100B1000F0BCBB46B246A946A046F0BD0A9B414682
:100B200018024B461843D047089009916268EFF3CA
:100B3000108572B61368002BFCD00794BFF35F8F4B
:100B40000899099A002A48DB114303D0079B1B69C7
:100B5000002B5DD1079B1B68D97B002907D04A0079
:100B6000521819688C4649466244033A51704A4605
:100B7000DA734B46079A013BD168CA5C0132CA540A
:100B80005B46079A13615368BFF35F8F5A461A603A
:100B900085F3108882E700230026984600279A46AE
:100BA0000020A7E7002901D100289BD101212000C6
:100BB00000F03AFD43461E685F689B68079A9A46B4
:100BC0004346DB689846D3684B44013B1B780A9345
:100BD0001B020343136100208CE72369002BB9D06B
:100BE00033003C005B1A94411A002300A74219D835
:100BF0009F421BD05946049101210391494602911D
:100C000041460191514607980091FFF7A5FEB7E7CD
:100C100000F0DEFA089A099B06000F0092197B414A
:100C20009942E5D901225242D317E3E79642E1D92E
:100C300001225242D317DDE7FCEF0220FFFFFF0F36
:100C4000F8B557464E46DE4645469146E0B50400A7
:100C50009A464268EFF3108872B61368002BFCD0F6
:100C6000BFF35F8F2668B57B002D48D06F003368D7
:100C70007F19033FD9194B78B373002B00D1F3735D
:100C8000A268344B94464A46EB181B0163441A6031
:100C900052465A60304A9A600022DA608A704A707E
:100CA0000A70737B9B46002B43D02A001900B06862
:100CB00073689847326800282FD05B4658465B001F
:100CC0005B44D719033BB870D118D35C002B3FD1DC
:100CD0005B460D7073735D452CD00026E3685B198D
:100CE000013B19786368BFF35F8F00221A6088F3B5
:100CF00010880020002E0AD10802284307E063680C
:100D0000BFF35F8F1D6088F3108801204042F0BC64
:100D1000BB46B246A946A046F8BD5B465B005B44B5
:100D2000033BD3189D70D119D25D002A0ED15B46CA
:100D30000B7075734A465346207D00F0A9FA061ED3
:100D4000CBD02900206800F0EDFCC7E75A70EEE731
:100D50007B70BDE7FFFFFF0F5109001070B5184C05
:100D60002368002B00D070BD032000F025FA03207B
:100D700000F0F0FA1349032000F044FA182003F0C1
:100D800001FF0500FFF736FD0F4B2A009C4660442B
:100D900080000E496860102000F050FB1021286090
:100DA000102003F0F3FE0121A860102003F0EEFEF6
:100DB00003232B75064BE860DD602560D3E7C04652
:100DC00038E90220790A0010400000341D090010A3
:100DD000FCEF0220014B18687047C04638E902203A
:100DE000F0B5DE464E4645465746E0B585B0019320
:100DF00010AB1B780600039300239B469846009295
:100E00007268EFF3108A72B61368002BFCD0BFF340
:100E10005F8F3568AC7B002C00D182E067002B68C7
:100E20003F19033FDB195A78AA73002A00D1EA73ED
:100E3000B168564A8C4600980199A2181201624482
:100E4000106051600E9991600F99D16042469A707E
:100E50005A701A706B7B9946002B00D17FE02200FC
:100E60001900A8686B6898472A6800286BD04B4621
:100E700048465B004B44D719033BB870D118D35C8C
:100E8000002B00D07EE04B460C706B734C4567D056
:100E9000F3681B19013B18787368BFF35F8F4246F4
:100EA0001A608AF310885B46002B08D100022043A9
:100EB00005B0F0BCBB46B246A946A046F0BD039BB8
:100EC000002B61D00E9B00200F999847030004006F
:100ED0000D000B4358D000290DDA0098019902004B
:100EE0000B00121BAB41994215D823D000920193FD
:100EF000039B9B4684E700F06BF902000B00A418EB
:100F00005D412000290000900191AB4203D8EFD150
:100F100000998A42ECD901235B42DC1700930194CB
:100F2000E6E77368BFF35F8F1C608AF310880120C7
:100F30004042BDE700999142D8D901235B42DC17BA
:100F400000930194D4E74B465B004B44033BD3181A
:100F50009C70D119D25D002A10D14B460B706C7376
:100F6000307D009A019B00F093F98346002800D160
:100F70008EE72100306800F0D5FB89E75A704B46B8
:100F80000B70ECE77B707EE7002091E7FFFFFF0F1F
:100F900070B542680400EFF3108572B61368002B39
:100FA000FCD0BFF35F8F2068CEB2437BB3420AD040
:100FB000FF230B405A00D318026894466344033B56
:100FC0009B78002B13D0E268FF2394460B406344C8
:100FD000013B0A0A1978D2B291420ED00020636810
:100FE000BFF35F8F00221A6085F3108870BD2269FD
:100FF0008A42F3D100202361F1E7310000F092FB37
:10100000EDE7C046F8B5040000F0E2F8FA22060069
:101010000F00200000230021920003F0EFFA801956
:10102000794104000D008F421AD817D00626764267
:10103000F71736196F41AF4237D90026002700F065
:10104000C7F832003B00121A8B41002B16DC002B34
:1010500028D02900200000F0C5F8F8BD8642E5D967
:1010600007267642F71700F0B3F832003B00121A59
:101070008B4101246442E517002BE8DD0D4B320063
:1010800018683B00FFF7DCFD0028E2DB39000A4A64
:10109000536A994204D8906A8642DAD99942D8D1E3
:1010A00020BFF5E7002AD4D0E8E7AF42C7D1A64277
:1010B000C3D8C4E738E902200040054070B50E4DA2
:1010C00002000B00060028680C00FFF7B9FD011EA6
:1010D00003DD20BF2868FFF75BFF084B0020596A3B
:1010E0008C4203D89B6A0130B34200D370BD641AAE
:1010F000631E9C41E0B2F9E738E902200040054058
:10110000F0B5D6464F464646C0B5EFF305833F22BD
:10111000134018001038EFF3108C72B6204D2A6877
:10112000002AFCD0BFF35F8F0122110081401D4CCB
:10113000884661631C4917000E788A463100C14019
:101140000F400A4209D1BFF35F8F2F608CF31088E4
:10115000E0BCBA46B146A846F0BD14498200646AB4
:1011600051588C420FD3124BD25843469E4353469C
:101170001E70BFF35F8F00232B608CF31088002A52
:10118000E6D09047E4E70B4A9B00904643441A6838
:101190001A60BFF35F8F00232B608CF31088D7E7B2
:1011A000280100D0004005403FF0022024F002203A
:1011B000FCE80220D03F054010B50100024A034878
:1011C000FFF790FA10BDC046208D07103DF00220B9
:1011D000034B596A0A00986A596A8A42FAD17047E1
:1011E00000400540064A536A9942FCD807D1044B97
:1011F00002E05A6A914202D19A6A8242F9D3704758
:101200000040054070B504000D00EFF3108672B683
:101210001A4A1368002BFCD0BFF35F8F002D1BD040
:10122000200000F049FD164981420AD0200000F05C
:101230004BFD0121200000F025FD0123A340114AB0
:101240001360114BA400E550BFF35F8F00220B4BDE
:101250001A6086F3108870BD0B4BA200D550012296
:10126000A2400A4920000B7893430B70044900F018
:1012700055FD0021200000F005FDE5E7280100D024
:101280000111001038600540FCE802203FF0022008
:10129000F0B5CE46474680B52A4C616A0D00A66A75
:1012A000616AA942FAD18B4207D804D00120C0BCA0
:1012B000B946B046F0BDB242F8D9EFF3108972B624
:1012C000214C21680029FCD0BFF35F8F01258540A8
:1012D0001C4C1E4F6563E9B2884639788C464146FE
:1012E000664631433970011D89000A511849800052
:1012F0004350216A002029420BD0616A0800A66A87
:10130000616A8142FAD18B4202D80AD1B24208D92D
:101310000020BFF35F8F00220B4B1A6089F3108807
:10132000C5E7084B42461D625D6363469343012057
:101330003B70BFF35F8F0022034B1A6089F3108864
:10134000B5E7C04600400540280100D03FF002202C
:1013500024F00220EFF3108C72B60A490B68002BC0
:10136000FCD0BFF35F8F01238340074A0748136215
:1013700002789A430270BFF35F8F00230B608CF3F7
:1013800010887047280100D0004005403FF002203F
:10139000024B9C4661448900016070474000003464
:1013A00010B50400FFF726FA01002000FFF7F0FF58
:1013B000FF232371BFF35F8F10BDC04610B504003B
:1013C0000120FFF723FA01002000FFF7E1FFBFF340
:1013D0005F8F10BD70B5050014001600002915D0F0
:1013E0000C00002A12D080686B6898472968002892
:1013F0000ED073009B196200033B1219CB18033AFD
:101400009C7088188A5C002A15D10670200070BD77
:1014100063001B197200033B9219CB18033A9E70AC
:1014200088188A5C002A02D104703400EEE75A70F2
:1014300004703400EAE75A700670E7E7F0B5C64674
:1014400005000F0000B510210120160003F09EFBDF
:10145000EBB204000373032147602800984603F0B1
:1014600095FB002363730133A3734346FF21E373AA
:10147000FE232060A66029402B4206D0421CFD3B83
:101480000133137003328B42FAD34B0059180023F7
:10149000401803384370200080BCB846F0BDC046F9
:1014A000F8B5CE46474606000C0080B5002907D0A7
:1014B0004D0003686D18033D5A195778002F04D169
:1014C0002000C0BCB946B046F8BD7900C91903393F
:1014D0008846434459788946002159705170736891
:1014E0003A002100806898473368002814D04246AB
:1014F0009A18947059195B5D002B00D053700F70CF
:10150000270049463000FFF7CBFF390002003000CA
:10151000FFF760FF0400D3E7424641465D19AF7014
:101520009A185B5C002B00D06B701470E9E7C04622
:10153000F0B557464546DE464E46E0B50D006B0019
:1015400001685B19DF1E0400C85D83B00192CA19EF
:1015500000284CD043001B18033BCB185E78B446E0
:10156000002E16D1019E002E3ED1E67B002E04D027
:1015700073009B19CB18033B5D70E57300282FD1D6
:101580000023537003B0F0BCBB46B246A946A04648
:10159000F0BD72006244033A89184A7890460022EE
:1015A0004A7091465A70010032002000FFF712FF86
:1015B00043468246002B07D05B0021684344033B2F
:1015C000CB185A78002A16D1424651462000FFF720
:1015D00001FF2168019BCA19002BC6D00028CFD07B
:1015E00043001B18033BCB1800219970C8E7019BEF
:1015F000002BC5D1B9E75000801803380918487886
:10160000834648464870587041462000FFF7E2FE86
:10161000594680462000FFF743FF41460200200064
:10162000FFF7D8FE8046CFE7F0B557464546DE4681
:101630004E46E0B583B00191457B04006B00006825
:101640005B19DF1EC15DC21900294ED04B005B182B
:10165000033BC3185E78B446002E18D1019E002EBD
:1016600040D1E67B002E04D073009B19C318033BC6
:101670005D70E573002931D1002328005370617338
:1016800003B0F0BCBB46B246A946A046F0BD72000E
:101690006244033A80184278904600224270914694
:1016A0005A7020003200FFF795FE43468246002B19
:1016B00007D05B0021684344033BCB185A78002ACB
:1016C00017D1424651462000FFF784FE019B0100DE
:1016D0002068C219002BC4D00029CDD04B005B1864
:1016E000033BC31800209870C6E7019B002BC3D1B1
:1016F000B7E75000801803380918487883464846F1
:101700004870587041462000FFF764FE59468046F5
:101710002000FFF7C5FE414602002000FFF75AFEF9
:101720008046CEE770B5040000292CD0437B8B4265
:101730002ED0056848004018033828188278002AFF
:1017400021D053009B18033BEA5CEE188A4202D179
:101750001BE0002A08D053009B18033BEB185A7873
:101760008A42F6D142785A70002300228370437077
:101770002000FFF7DDFE617B02002000FFF72AFE5C
:101780006073012000E0002070BD43783370EBE708
:1017900000221900FFF7CCFE60730120F4E7C04679
:1017A000F8B52B4A2B4B2C491A602C4A2C4B1A604B
:1017B00014008B689C43FBD12A4D2B4EB54208D2B6
:1017C000013E761BB60808CD984723000134B3428A
:1017D000F9D100F097F8254A214B1A601E4A936808
:1017E000DB43DB01DC09002BF9D14022204B214DEA
:1017F000214F9A675A671A67DA66BD420BD20026F4
:10180000013F7F1BFF082800FFF7CAFD08353300A2
:101810000136BB42F7D1194E194DC022A9683000DC
:1018200003F0CAF9AE60FEF7D7FF00F0B5FBFFF793
:1018300095FA144D144EB54208D2013E761BB608F7
:1018400008CD9847230001349E42F9D1F8BDC04627
:10185000BFCDFFFF00E0004000C00040FE7F3C0025
:1018600000F00040B4260020C4260020FFFFFF0146
:1018700000F00140AC260020B4260020000000202B
:1018800000ED00E0C4260020D826002000BEFDE7C1
:10189000094A03001068002805D00849C3188B4284
:1018A00007D21360704706480449C31810608B4282
:1018B000F7D301204042F5E770E902200000042040
:1018C00040F0022000BEFDE70FB400B5084883B029
:1018D00003F096FA049B002B07D005A9180001918C
:1018E00001F044FE034803F08BFA00BEFDE7C0465A
:1018F000448D0710A0E8071010B50148FFF7E4FF7A
:10190000548D071030B50C2083B000F071F9FEF74C
:101910008DFF00280ED09A4B9A4A1A605A609A603E
:10192000DA601A615A619A61DA611A62964A5A62F9
:1019300003B030BD954CA06700F062F90122944BD2
:101940001A60636C012BFCD10322924B1A608F4A00
:10195000936B012BFCD1C0228F4B92011A608F4BED
:101960008F491A6010008B689843031EFAD1022435
:1019700001218C4A8C480633009400F055F9052368
:101980008A4A01218A48009400F04EF9894B5A682E
:10199000FF2A02D8802252005A608022784C7D4B68
:1019A00021691201834D1A60002905D0606901F098
:1019B00061FE01300138FDD1E0217E4B02201A6822
:1019C0001140802252012A431160196848400321C6
:1019D0000140116004219A681142FCD080228021CC
:1019E00092012A4309011160802252005A60724B11
:1019F0002361724B5968FF2900D85A600321644A59
:101A00006E4B116002399A681142FCD0E0201A68CE
:101A10001040802252011A43106018684840032188
:101A200001400220116065498A681042FCD0802282
:101A300092011343802212011A608022604B5200EF
:101A40004A6063615F4B5968FF2900D85A60802261
:101A50005D4BE16912015B4D1A60002905D0606998
:101A600001F008FE01300138FDD1E02255490B6834
:101A70001A4080235B012B431A60802380229B0144
:101A80002B4312011A6080223E4B52004A60E361F0
:101A90004E4B5968FF2900D85A6080224C4B216A6E
:101AA00012014A4D1A60002905D0606901F0E2FD7B
:101AB00001300138FDD1E02244490B681A408023EF
:101AC0005B012B431A60802380229B012B43120170
:101AD0001A60802380225B004B602A4BD202236273
:101AE0003C4B5968914200D25A6080223A4B616A5D
:101AF0001201384D1A60002905D0606901F0BAFD65
:101B000001300138FDD1E02232490B681A408023B0
:101B10005B012B431A60802380229B012B4312011F
:101B20001A608023DB024B60174B63622B4B5A68B1
:101B3000FF2A02D8802252005A608022284BA169D5
:101B40001201264D1A60002905D0606901F092FD4E
:101B500001300138FDD1E02220490B681A40802372
:101B60005B012B431A60802380229B012B431201CF
:101B70001A6080235B004B60114BA361D8E6C0461E
:101B800010E90220006CDC021BB70000008000405E
:101B90003CB0004030B0004000E0004000F00040A9
:101BA00000C00040002F68590080024000389C1C93
:101BB00000C0024030800040001BB7003C80004065
:101BC000405973075480004054B00040608000408A
:101BD00060B000406C8000406CB000404880004025
:101BE00048B00040014B8000C058704710E9022007
:101BF0008023024A9B000343D36270470080054064
:101C0000AA23064A1B0113602F230549D360054B05
:101C100019605368002BFCDA7047C0460040024050
:101C200000B0FA0000600240F0B5C64600B51E00E4
:101C300006AB1F7801235B424360002304008360EE
:101C400001600C20904601F015FD4101091A8D013B
:101C5000691AC90009188901404601F00BFDC0212D
:101C6000231D890119432123A0600B602268002AEB
:101C7000FCDA08233F0336043E43E6600B6080BC79
:101C8000B846F0BD01238340002904D0034A136005
:101C9000034A13607047034A1360FBE780E200E0E9
:101CA00000E100E080E100E001238340014A13608D
:101CB0007047C04600E200E0024B10309B68800095
:101CC000C058704700ED00E070B50D00EFF31086CE
:101CD00072B60F4A1368002BFCD0BFF35F8F0D4B19
:101CE00010309B6884001B590B4A934203D09D42DD
:101CF00001D0FFF701FE074B9B681D51BFF35F8FBB
:101D0000BFF35F8F0022024B1A6086F3108870BD0C
:101D1000240100D000ED00E0CD010010F0B5DE465A
:101D200057464E464546E0B50C0083B0EFF3108AA7
:101D300072B65E4A1368002BFCD0BFF35F8F10228F
:101D4000914681444A465A4B96009B689D59594B8F
:101D500098469D4205D0A54216D0574FEB1B2F2B1E
:101D600014D9534B9B689D51BFF35F8FBFF35F8FB7
:101D700000224E4B1A608AF3108803B0F0BCBB46B9
:101D8000B246A946A046F0BD1D00EAE70123834004
:101D90009B465A46494B1B681A4000925A46484B8C
:101DA0001A60BFF35F8FFEF75EFA0190002803D040
:101DB000814501D0FFF7A0FD0123290099438B68DD
:101DC000A34268D00A0007E043001B189B00FB18E1
:101DD0009868A04211D01A00062010560028F3DAA5
:101DE000009B002B05D05A46364B1A60334B1A60C5
:101DF000B7E75A46324B1A60B3E706201856002858
:101E000021DB4200111889007C188846A16899607E
:101E1000E179D97106216156997100292BDBA488DB
:101E2000F91A6405241544440919E0240905490DEB
:101E30002402214399801218234B9200BF181A786C
:101E40001870BA71CCE70198002817D1FF30907153
:101E50001E4890801C4AC91B1078891098718B000D
:101E60005B1818011B1818021B1818041B185B00BC
:101E70005B181370B4E7BD210902DBE7144A15496A
:101E8000D21A083A5002400D014399801249520873
:101E90000A43DA80A4E7062008560B000028B0DACF
:101EA000019A002AEAD14546D4E7C046240100D071
:101EB00000ED00E0CD010010841D002000E100E0F5
:101EC00080E100E080E200E03EF0022000BDFFFF84
:101ED000BE1D002000F0FFFF00F8FFFF70B50125D8
:101EE00004000543FEF7BFF9EFF3108C72B6244AE5
:101EF0001368002BFCD0BFF35F8F224E8000A11B24
:101F000089108A0052181301D2181302D218130430
:101F1000D3181D4A5B005B1891680958A9421CD070
:101F20000622B2569A421CD01222B256934222D0B6
:101F30001E22B256934220D02A22B25603219A4240
:101F400010D0124A11781370A171BFF35F8F002275
:101F50000B4B1A608CF3108870BD92680C491150BD
:101F6000EFE700214A005218FF219200B218917148
:101F700008499180E5E70121F4E70221F2E7C04634
:101F8000240100D0841D002000ED00E03EF002207E
:101F9000CD01001000BDFFFFF0B500220324FF2794
:101FA000802620003D00094B11009C461040C000D7
:101FB0008540A14361440B680132AB433500854045
:101FC0002B430B60202AECD1F0BDC04600E400E0BA
:101FD0009A4200D2885470477047C046F8B55746B9
:101FE0004E464546DE46E0B599460A9B07009A46AE
:101FF0000D9B8846934615000B9E9B0710D10C9BAA
:102000009E420DD29D1B14000E005D4422004B46E3
:10201000013431002020B847A542F7D1B0460B9ECD
:10202000002E27D0444675195346AA1B013E985DE1
:1020300021004B46B847002EF6D123002C009846CD
:102040000D9B9B070FD55B46E51A0C9BAB420AD94B
:102050004646984622004B46310020200135B847BD
:102060000134A845F6D82000F0BCBB46B246A946CC
:10207000A046F8BD2C00E3E7F0B54F464646D646ED
:10208000C0B584B098460EAB1B78129F9946944613
:102090000D9C109B119EBA0725D4002E4BD19C425B
:1020A00000D3BFE001223A4092461F2C00D9B8E08D
:1020B0000C9A551E302201E0202C03D001342A5501
:1020C000A342F9D85246002A0DD0A6420BD9202CA3
:1020D00044D00C9A551E302201E0202C3ED0013411
:1020E0002A55B442F9D1FA064DD57A053FD4002CD1
:1020F00039D10F9B102B00D179E00F9B022B00D11F
:102100008AE030230C9A012413704B46002B3FD0F9
:102110002D230C9A135501340C9B624600930397B0
:10212000434602960194FFF759FF04B0E0BCBA465B
:10213000B146A846F0BD012215003D40AA463A42EC
:102140002FD04A46002A02D10C323A4200D0013E3A
:102150009C42BAD21F2CABD9202E27D92024FA06B4
:10216000DAD57A0503D4A3422DD0A6422BD00F9BFB
:10217000102B32D0022B20D0202CCDD030220C9B23
:102180001B191A700134202CC6D04B46002BBFD12E
:102190007B070DD43B07BFD520230C9A1355013480
:1021A000BAE79C429FD21F2C00D881E720249AE7EF
:1021B0002B230C9A13550134AEE7202CACD00C9B8A
:1021C0001B1901343AE0631E012C92D00F9A102A99
:1021D0002AD0022A2FD01C00D0E7BB060ED4202C18
:1021E0009AD00C9B1A19013478231370C4E7BB06EC
:1021F0000DD478230C9A01241370BFE7202C00D152
:102200008AE758220C9B1B191A700134B4E7582333
:102210000C9A01241370B1E70C9A603301241370F7
:10222000ACE7202400265EE7023CBA06E9D40C9A0B
:1022300012191C00D8E70C9A9246534462221A7075
:102240009AE7C04610B5002800D110BD02F0CAFDC3
:10225000FBE7C0460B0010B5002802D049681B6898
:10226000984710BDF0B5DE4657464E464546E0B5A8
:102270009BB09A46249B8B469946259B0B9098468B
:102280000C9243464A464846414601F0B8FC0028B5
:1022900000D095E1012248464146E14B524201F00F
:1022A000A9FC002800D08BE1012248464146DD4BC5
:1022B000524201F089FC002800D081E10022002375
:1022C0004846414601F080FC002800D09CE14A4687
:1022D00043460A9209938023289ADB001A40119200
:1022E000289A1A4201D106232693CF4B099F9C4678
:1022F0007800400D604401F095FCCC4ACC4B01F0D5
:1023000019FCCC4ACC4B01F003FC3B03CB4A0A9EA0
:102310001B0B1A4304000D0030001100C84B0022B3
:1023200001F0EDFBC74AC84B01F004FC02000B00B2
:102330002000290001F0ECFB01F08CFC0D9001F075
:1023400071FCC24AC24B04000D0001F0F3FB0022F5
:10235000C04B01F0DDFB01F07DFCBF4A0600BF4B26
:102360002000290001F0E6FB040030000D0010966B
:1023700001F058FCBA4ABB4B01F0DCFB02000B0039
:102380002000290001F0BBFB02000B0006000F003B
:1023900001F0D0FB320004000D003B00300039009A
:1023A00001F0B6FB00220E900F91AF4B20002900E8
:1023B00001F0B7FB0022AD4B01F0AAFB02000B00BD
:1023C0002000290001F0ADFB0022A94B01F0A0FB89
:1023D00002000B002000290001F0A3FB0D0080216A
:1023E000040032003B000020C90501F088FB020018
:1023F0000B002000290001F08BFB02000B000E985F
:102400000F9901F08EFB00228C4B01F081FB109B99
:10241000984A1C00944664440022230501F08AFB7C
:1024200006000F0002000B000A98099901F0CCFB8E
:1024300000280AD00D9B3000013B39000D9300228B
:102440008A4B01F06EFB06000F000D9DC6242B0089
:1024500063339C42A441289B644204341B051FD56E
:10246000854A864B0A98099901F0BCFB002800D1E7
:10247000BFE00022824B0A98099901F0A5FB0028D1
:1024800000D1B6E0269A954200DAC4E000232693F4
:102490008023289ADB001A430023002428920D93FE
:1024A000279B0025A34200D91D1B0223289A1A400E
:1024B0001092289A134203D0634263415B421D404D
:1024C0000D9B002B07D00A98099932003B0001F0C0
:1024D00028FB0A900991002200234846414601F05A
:1024E00073FB002805D080200006844609996144CA
:1024F0000991289A634B0B9E13400493269B0A9ADA
:102500000293099B0395009201935946534630006C
:102510000C9A00F0B9F80500002C62D0289B2A0024
:1025200098061F23C01798436B1C9846594653467C
:102530006530B0470D9B0026DA179D18DB0F9946D2
:102540005540013C01E0202E13D00AAA94461F23D7
:10255000280063440A2101369F1901F08BF83031BD
:10256000397028000A2101F085F82F000500092F95
:10257000E9D805230693002304930A3303934B46BB
:102580000B9F029312AB00934246534659463800C4
:1025900005940196FFF770FD109B0500002B20D0DD
:1025A0000C9BC41A279BA3421BD91E002A0053462A
:1025B000594620200134B8470135A642F6D810E02C
:1025C000289B4A460493279B59460393269B0B98C6
:1025D000029343460092019353460C9A00F054F83C
:1025E000050028001BB0F0BCBB46B246A946A04679
:1025F000F0BD269B002B00D152E7119B5A1E934140
:10260000269AD31A26934BE74B460A9380231B0640
:10261000434409935FE6501B431E269338E7C046A8
:10262000FFFFEF7FFFFFEFFF01FCFFFFFB799F50F4
:102630001344D33FB3C8608B288AC63F0000F03FE5
:102640000000F83F61436F63A787D23F71A3790908
:102650004F930A400000E03F1655B5BBB16B0240F6
:10266000EF39FAFE422EE63F00002C4000002440E5
:1026700000001840FF0300002D431CEBE2361A3F18
:1026800080842E41FFF7FFFFF0B54E46DE465746E9
:102690004546E0B597B09946209E219F229B8346F0
:1026A000984607910C923B0032003000390001F04F
:1026B000A6FA002800D0A9E1012230003900CA4B57
:1026C000524201F081FA002800D0E1E001223000FE
:1026D0003900C64B524201F08DFA002800D0B7E015
:1026E000002230003900C24B01F084FA002800D0EB
:1026F00099E0002230003900BE4B01F065FA002855
:1027000000D090E0002200233000390001F05CFA94
:10271000002800D0B1E000230D93249B5B0501D479
:102720000623984608AB9C461722002430234146D6
:10273000624404E0013413550139202C01D00929E9
:10274000F8D888463000390001F084FA4346DA00B0
:10275000A94B05009B181A685B680892099301F061
:1027600061FA02000B003000390001F0C8F9089A44
:10277000099B01F0DFF90A900B9101F08FFA824674
:1027800001F04CFA02000B000A980B9901F0B7F91E
:1027900000229A4B0A900B9101F02CFA002800D1EC
:1027A000C0E001239C46E244504601F037FA0200A3
:1027B0000B000898099901F00DFA002802D00023B7
:1027C0009A4601354346002B6AD008AB17269C4633
:1027D00008956644554614E001235B4243440A21B0
:1027E00028009A4600F046FF01343031371939701D
:1027F00028000A2100F03EFF092D00D8D0E0D04685
:102800000500202CE8D10EAB98460323249A1340F0
:10281000012B00D196E02023249A01930392239A5E
:10282000434602921EE0249B58460493239B009645
:102830000197039343460C9A029307994B46FFF77F
:1028400011FD17B0F0BCBB46B246A946A046F0BD8C
:10285000249B5B070ED40322694B249901920391B8
:1028600023990291009358464B460C9A0799FFF71B
:10287000B5FBE6E70422634BEFE73B0032000020A4
:10288000002101F03CF9012306000F000D9344E7FD
:10289000249B0393239B0293042301935A4BE1E768
:1028A000280001F0BFF902000B003000390001F0F0
:1028B00026F9524B002206000F0001F085F90EABFD
:1028C000984600280AD10022300039004B4B01F015
:1028D00091F9002802D1EB0700D50135202C94D0C6
:1028E00008AA94461723280063440A2101341E19BC
:1028F00000F094FE3031280031700A2100F08EFE85
:10290000051EEBD10323249A1340012B1BD0202C4E
:1029100000D180E70D9B002B35D02D224146631C52
:102920000A5579E700220A980B99344B01F04CF9CB
:10293000002800D046E75346002B51D101239C4686
:10294000E2443FE72024239B002BE0D00D9B002B8B
:1029500003D1249A0C33134202D0239B013B2393CF
:10296000239BA342D3D908AB9C4617223023624451
:10297000202C00D14FE72399013413558C42C6D047
:10298000202CF8D147E7249B5B0724D4249A23000A
:10299000120700D440E72022414601330A553BE7A5
:1029A0005746089D202C00D12DE7220030214046BB
:1029B000002F09D00132B154202A00D123E7D3439C
:1029C0001B191B18002BF5D10EAB98462E23414640
:1029D000541C8B5482E72B224146631C0A551BE78B
:1029E000DB0700D4EEE6A9E7FFFFEFFFFFFFEF7F75
:1029F00065CDCD4165CDCDC1588F07100000E03FBA
:102A0000608D0710648D0710708D0710249B039351
:102A1000239B029303230193004B23E76C8D071044
:102A2000F0B5DE464E4657464546E0B59FB01C0021
:102A3000289B91460993C94AC94B8B4608901A6056
:102A4000002900D118E2002320789A46002800D1FE
:102A50001AE226001D005C460AE02A006F1C4B4665
:102A6000089D2100A8473D0001363078002870D02D
:102A70002528F2D110239B46083B9A46043B9846F2
:102A8000023B00219C46721C107816000300203B7C
:102A9000DBB2102B03D8B34F9B00FB589F460300BB
:102AA000303B092B32D900230A932A2868D000230F
:102AB00098462E283ED00300683BDBB2122B1CD870
:102AC000A94A9B00D3589F46012301321943DBE7F3
:102AD000634601321943D7E7434601321943D3E72E
:102AE0005B4601321943CFE7534601321943CBE726
:102AF00080235B007078194301360300253BDBB26D
:102B0000532BAAD8994A9B00D3589F46002703000D
:102B1000B800C01901364000C018337830381A00A8
:102B2000303A0700092AF3D90A9018000023984682
:102B30002E28C0D180237078DB0019430300303B7E
:102B4000721C092B00D8A1E12A2800D1B2E116009D
:102B5000B1E7A346AA462C00D14503D801235B4226
:102B60004B449A464B46524659460020089DA8477A
:102B700020001FB0F0BCBB46B246A946A046F0BD3F
:102B8000099B40CB0A96002E03DB50780993561C14
:102B90008DE72838014370420A9009935078561CFB
:102BA00085E7782800D1DFE1582800D14CE26F2872
:102BB00000D14FE3622801D100F030FC10230A005D
:102BC0009A430B92692801D000F0A9FC0A230C93C8
:102BD0004B0500D5D0E10B9A802311009B001940D2
:102BE0008B461A4200D0A1E2802311005B001940FD
:102BF0008A461A4200D0B6E313005B0600D5EDE228
:102C0000130009991B0601D400F076FC08C91BB219
:102C1000D8171A18424092B209919346DA0F1292CD
:102C2000002B09D1802310220B99DB000B4091432C
:102C30000B91002B00D0E4E20B9A6123920600D5A1
:102C400041230EA91F228C46DBB262440A3B5F4639
:102C50001395A34655460C9CB2460D9316000AE008
:102C60003033DBB201357355A74200D2EDE2202D9F
:102C700000D1EAE207002100380000F0FBFCCBB2F3
:102C80000929EDD90D9A94466344DBB2EAE7802323
:102C90009B007078194301362FE77078682800D1BF
:102CA000CDE180230136194327E770786C2800D1E5
:102CB000BFE180235B00194301361EE7462800D19F
:102CC0009BE10722099B0491073393430A9A190059
:102CD0000392424602920CC908980092019309910E
:102CE0002A004B462100FFF7CFFC01360500BCE669
:102CF0002A006F1C4B46089D21002520A84701365D
:102D00003D00B2E68B0700D4ADE1099B2A009A464C
:102D10006B1C9846534601CB21009A46089F4B46B0
:102D2000C0B2B8470A9B9C466544012B00D886E296
:102D3000089B4746B04626004C4699463A00230079
:102D4000013731002020C847AF42F7D1A146534692
:102D5000340046460993013687E6C046212A001012
:102D6000F4EF0220788D0710BC8D0710088E071035
:102D7000099B04CB9B4643460992002B00D1C6E039
:102D800013789C46002B00D1BDE34346013B099AD2
:102D90000133D0180A9F130001E0834203D05A7810
:102DA0000133002AF9D1099A0A979B1A0B938023C1
:102DB0000A00DB001A400C92194204D00B9B4345D9
:102DC00001D943460B9302231A000A400D920B428D
:102DD00000D187E16046002800D168E10C9B002B00
:102DE00000D10DE1A844C246099B57465B1B98469B
:102DF000089BB2462A0026004C46994609E023006B
:102E00003100551CC8474346585D002800D126E1D3
:102E10002A009742F3D1A1463D00340056460D9B4F
:102E2000002B00D043E15B46013609931DE6099B68
:102E30001A0008CA9246002B48D0212211438B4623
:102E40000EA884461F216144099500220F27A4463D
:102E50000D0002E0202A0CD00B003C001C4020009A
:102E60003730092C00D807380132A85419090F2B24
:102E7000F0D86446099D32E0DC4B207808930023AB
:102E80009A46002800D0E4E5002465E643460600A3
:102E90000A9F9800C018013240008019167803007C
:102EA00030003038303B0928F3D9300098461600FE
:102EB0000A9700E6099B023604CB9046D24340466F
:102EC000D2171040804609933078F4E510220800AC
:102ED000904311321043834600224905B0D55B462A
:102EE000069308230593434604931023039300237A
:102EF000029316AB019200932A004B4621000898DA
:102F0000FFF7BAF85346050001360993ADE513788B
:102F10009C46002B00D1F7E202235B4237E72023D7
:102F200002009A43472A04D180231B01194302233C
:102F30009843452801D1202319430722099B049176
:102F4000073393430A9A19000392424602920CC92E
:102F500008980092019309912A004B462100FFF73F
:102F600081F90136050080E510230C930C230A003B
:102F70009A430B924B0503D501230B9A9A430B926C
:102F8000692800D127E6642800D124E60B9A802323
:102F900011009B0019408B461A4200D066E1802345
:102FA00011005B0019408A461A4200D039E2130032
:102FB0005B0600D53CE113001B0600D4A6E2099B8A
:102FC00004CB1204120C934609935B46002B00D0ED
:102FD0009AE10B9A1033110099430B91520500D4DA
:102FE00092E100239A460B9B06930A9B0593434666
:102FF00004930C9B039300230CE12023194360E608
:10300000099B0A9A5B1B98464B4691461F00B246A5
:103010002600089C2A003B003100A04743460135AA
:10302000585D0028F6D14A463400B94656460A9201
:10303000F5E6C0239B00B078194302365DE5C02356
:10304000B0781943023658E50C230A009A4314332A
:103050001A43103B0B920C934B058DD496E7A14677
:1030600034005646DBE60A9A012A00D853E26B1E6A
:103070009F18089BB04626004C4699462A0023001C
:10308000013531002020C847BD42F7D1A1463400A8
:103090004646099B3A0001CB210098467D1C4B46D1
:1030A000089FC0B2B847434601360993DDE40B9B45
:1030B0000A99A846994200D8B5E68C466544ED1AAF
:1030C000089B4746B04626004C4699463A002300E6
:1030D000013731002020C847AF42F7D1A146340064
:1030E0004646A0E60B9A0A98531C904200D814E278
:1030F00043199B1A1F00089BB24626004C4699466E
:103100002A002300013531002020C847BD42F7D1F5
:103110000A9BA14601330B93099B34001B7856464A
:103120009C466046002800D058E67CE60722099BB2
:1031300007339343013294469C4462465F68099288
:103140001A68FB17109311931098119903005340BC
:103150000E930B007B400F9394460E9A0F9B121A0E
:103160008B410E920F93FB0F6246129300233A435A
:103170009B463DD00B9A6123920600D54123002245
:10318000DBB20EA90A3B8C4692460D9343461F3292
:1031900062441395159655460E9E0F9FA246904683
:1031A0000C9C14930CE03032D2B2434601355A5590
:1031B000BB4500D18AE1202D00D18AE106000F0035
:1031C000220000233000390000F09AFAD2B2092A16
:1031D000E9D90D9B9C466244D2B2E6E7FF230999E8
:1031E00004C913401A00099117E5C046D91F001001
:1031F0000B9A1033110099430B915205BAD5002355
:103200009A460B9B06930A9B0593434604930C9B9B
:103210000393129B02935346019316AB2A0000932B
:1032200021004B460898FEF727FF013605001CE4F5
:10323000FF22099B02CB11408B460993C5E65346FA
:10324000454609930136FFF710FC56465C46AA46F0
:10325000139DD6E708230C930B910B99642800D09B
:1032600084E60B9B5B0500D586E6B4E40722099B48
:1032700007339343013294469C44624609921A688C
:103280005B6810009B4613005A46134307D10B9A04
:103290001033110099430B91520500D5A1E60B9A0A
:1032A0006123920600D541230022DBB20EA90A3B1E
:1032B0008C4692460D9343461F3262445F461295F8
:1032C000A34655460400B24690460C9E13930DE06B
:1032D0003032D2B2434601355A550023BB4200D1A9
:1032E00000E1202D00D100E104000F003200002396
:1032F0002000390000F004FAD2B2092AE8D90D9B67
:103300009C466244D2B2E5E70B9A6123920600D54F
:103310004123DBB20EA90A3B1F228C460D932300EA
:1033200062445C461295170055469B46B2460C9E79
:1033300008E03033DBB201357B55B4420ED3202D8B
:103340000CD004003100200000F094F9CBB2092920
:10335000EFD90D9A94466344DBB2ECE756465C46DF
:10336000AA46129D3FE6099B1A0008CAD917139274
:103370005A184A409246DA0F1292002B08D1802345
:1033800010220B99DB000B4091430B91002B2BD1AA
:103390000B9A6123920600D541230EAA1F2794465B
:1033A000DBB20A3B0D9567445D460993A34654463C
:1033B000B2460C9E08E03033DBB201357B55B44297
:1033C0000ED3202D0CD004003100200000F052F963
:1033D000CBB20929EFD9099A94466344DBB2ECE7F2
:1033E00056465C46AB460D9D0B9B2A0006930A9BF6
:1033F00021000593434604930C9B08980393129B6A
:10340000013602935B46019316AB00934B46FEF7E1
:1034100033FE139B05000993FFF727FB02230C9350
:103420001AE7099B04CB92461293002A08D1802305
:1034300010220B99DB000B4091430B91002B2BD1F9
:103440000B9A6123920600D541230EAA1F279446AA
:10345000DBB20A3B0D9567445D460993A34654468B
:10346000B2460C9E08E03033DBB201357B55B442E6
:103470000ED3202D0CD004003100200000F0FAF80B
:10348000CBB20929EFD9099A94466344DBB2ECE741
:1034900056465C46AB460D9D0B9B2A0006930A9B45
:1034A00021000593434604930C9B08980393002343
:1034B00002935B46019316AB00934B46FEF7DCFD8F
:1034C000129B050009930136FFF7CFFAB44200D8EA
:1034D00071E6149B54460E960F97AA469846159E81
:1034E000139D8EE6A64200D8FBE6139B56469846EF
:1034F000AA465C46129D76E508C9D8171A184240BC
:103500000991FFF78AFB00230B9350E4099B04CB3E
:103510009346099359E52F00BBE50B9301E6063B63
:103520000C939AE60EB4012210B585B007AC08CC16
:1035300001000094524204480394FFF771FA05B069
:1035400010BC08BC03B01847D11F001000B585B0EF
:103550000391012102900093034813004A4202A9FB
:10356000FFF75EFA05B000BD5522001010B5094AFC
:103570000300146884B0002C08D001220091064892
:10358000524203A9A047012004B010BD01F038FC4D
:103590000020F9E7F4EF0220452200100148042141
:1035A000014B1847D01D0020D9350010014B5B6836
:1035B00018470000D01D0020142310B50100188802
:1035C00004331B88984710BD162310B501001888D6
:1035D00002331B88984710BDF8B54746CE4680B5E4
:1035E0000F1E19D014239946043304000025012628
:1035F00098464B461888434621681B88984701C463
:10360000431E9841013540420640AF42F1D130009F
:10361000C0BCB946B046F8BD0126F8E7144A936F1E
:103620009B0815D29066D166002905D0FFE7FFE719
:10363000FFE7516F106F704704B580210906C2176C
:103640005140002800D0C84351F05EFE002104BD67
:10365000936F5B08FDD3F0B5946ED56E576F166F00
:10366000FFF7E0FF9466D56657671667F0BD000068
:10367000000000D0134A936F9B0813D21066516666
:10368000002905D0FFE7FFE7FFE7516F106F704794
:1036900004B5002801D00020C04351F035FE0021C0
:1036A00004BDC046936F5B08FDD3F0B5946ED56E34
:1036B000576F166FFFF7E2FF9466D5665767166778
:1036C000F0BD0000000000D094464E4A926F920870
:1036D000624601D230E0C046F0B54A4EB56F6D0883
:1036E000FCD3346E756E776F366F00F025F8944614
:1036F000444A14665566576716676246F0BDC04671
:103700009446404A926F9208624601D258E0C04601
:10371000F0B53C4EB56F6D08FCD3346E756E776FA7
:10372000366F00F04DF89446364A14665566576772
:1037300016676246F0BDC046002B24DB11D000297D
:103740003EDA00B5C943404200D1013100F038F8FB
:10375000C943404200D10131DB43524200D1013321
:1037600000BD002AEBD1002801D1002905D000209E
:10377000C90FC90701D1C043410800B551F08CFD04
:103780000022002300BD00B500290ADBDB435242C2
:1037900000D1013300F014F8C943404200D1013197
:1037A00000BDC943404200D10131DB43524200D148
:1037B000013300F005F8DB43524200D1013300BD74
:1037C000002923D1002B18D1002A0CD0BC460D4F64
:1037D00038667A6600210023FFE7FFE7FFE77A6F8C
:1037E000386F67467047002801D00748010000B5D0
:1037F00051F052FD0022002300BD02000B0000200A
:1038000000217047000000D0FFFFFFFF002B00D019
:10381000BDE0130C26D1002AE7D080B4104F3966E2
:103820007A66FFE7FFE730B4040C7B6F396F1B0447
:1038300023433B66FFE7FFE7FFE7C04684B27B6FA9
:103840003D6F1B0423433B66FFE7FFE7C0460023B1
:103850002C042D0C7A6F386F00196941B0BC704789
:10386000000000D0F0B594460025140E01D11202DC
:103870000835140F01D112010435940F01D19200C3
:103880000235D40F01D152000135D40B0134254F3C
:103890007C66254C3C660E0C93B2FFE7FFE7FFE722
:1038A0003C6F6643360C7703BE467343DF0B5B0405
:1038B000C01AB941130C7343DB18C91ACE0866430A
:1038C000360CB64493B273431F0F1B01C01AB941A3
:1038D000130C73431F0B1B05C01AB941860D8F02D1
:1038E0003E436643360C092D24DB520A7243801A8C
:1038F0007703460A6643360C16235B1BDE40DF4027
:10390000BF1964466643821B7046043506330100C6
:10391000D940A840C01900D30131A24206D20023E9
:10392000F0BD0000000000D0FFFFFFFF121B0130C0
:10393000F3D3F1E709277F1BFE406446A2B272432E
:10394000801A00D20139220C7243130C1204821A1D
:1039500099410B007046043513370100F940A84027
:10396000801900D30131002B02D1A2420AD2F0BD4E
:10397000013000D30131121BFAD2013BF8D1A2422F
:1039800000D2F0BD013000D30131121BF7E7F0B5D2
:103990001C0C00D080E00CB400251C0A04D11B02D2
:1039A000160E3343120208351C0B04D11B01160FEF
:1039B0003343120104359C0B04D19B00960F334313
:1039C00092000235DC0B02D192185B4101351C00DC
:1039D000971864410134464F7C66464C3C660E0C99
:1039E000FFE7FFE7FFE7C0463C6F6643360C77030F
:1039F000BE4697B27743C01B00D20139C01B00D22C
:103A000001399FB27743C91BC91B170C77437E044A
:103A1000FF0B801BB941CE086643360C0C2D33DBFF
:103A2000B644120B1F053A431B0B97B27743C01BDA
:103A300000D201399FB27743C91B170C77433E046C
:103A40003F0C801BB941860D8F023E4366432927F8
:103A50007F1BFE400C3D7746AF40BF1930BCA2B281
:103A6000ABB272437343801A9941220C7243130C18
:103A70001204801A994102000B000137001BA94172
:103A8000F9D2781E0021F0BD0C277F1BFE4077463F
:103A90007F0BAF40FF19E0E700245D1C07D0144FF7
:103AA0007D663966FFE7FFE7FFE7FFE73C6F95B20A
:103AB0009EB265436643401BB141150C1E0C654325
:103AC000664336042F0C3E432D04401BB1419942FE
:103AD00004D202000B0020000021F0BD01D1904271
:103AE000F7D3801A994101349942F2D3F6E70000E6
:103AF000000000D0FFFFFFFF48404140484018B49D
:103B0000114B5B68FC46019308BD04DF533F001076
:103B100018B40D4B1B68FC46019308BD00DF5D3FE8
:103B2000001018B4084BDB68FC46019308BD0CDF9D
:103B30001542001018B4044B9B68FC46019308BD65
:103B400008DFB94000100000E0260020FFB550401B
:103B50004240504059404B40594000E0FFB5154F9E
:103B60004C00640D03D0BC4204D10C0314D80020D7
:103B7000090D09055C00640D03D0BC4204D11C038F
:103B80000AD800221B0D1B0501264B4009D44B40CF
:103B900003D58B4200D18242FFBD9942FCD19042B5
:103BA000FFBD0B43DB1803431343F5D0C94349184A
:103BB000FFBD0000FF07000000B5FFF7CFFF01D0F9
:103BC000002000BD012000BD00B5FFF7C7FF804108
:103BD00000BDC04600B5FFF7C1FF01D9002000BD00
:103BE000012000BD00B5FFF7B1FF01D9002000BDE5
:103BF000012000BD00B5FFF7A9FF804100BD0120F5
:103C000040054A00121804D85A00121801D80020A2
:103C100070470120704700207047000000210028F5
:103C200005D17047C1174840401AFAD0C90713B5EB
:103C3000064B1B6898470CBC441CA2401005120B95
:103C40000349091B09051943114310BD18F002204F
:103C50001F04000010B54C00620D8023D218DB0059
:103C6000D21A5B057E2A10DD9E3A13DACC170903BF
:103C7000490819435242D140640001341532202AC8
:103C800005DAD0400843604310BD002010BD08464F
:103C9000604310BDC80FC018013810BD18B4044BE4
:103CA0005B6AFC46019308BD24DF4144001000001C
:103CB000E026002018B4044BDB6DFC46019308BDE0
:103CC0005CDF494500100000E026002018B4044BDA
:103CD0005B6EFC46019308BD64DF414500100000A7
:103CE000E0260020C94211D300B54900490800224E
:103CF00000F024F8002904D4002240428A411146F1
:103D000000BD80210906002000BD000018B4044B4E
:103D1000DB6EFC46019308BD6CDF4F4400100000D1
:103D2000E026002018B4044B5B6FFC46019308BDED
:103D300074DF694400100000E026002018B4044B32
:103D40009B6FFC46019308BD78DF6B4400100000B8
:103D5000E026002018B4044BDB6FFC46019308BD3D
:103D60007CDFD54400100000E0260020132370B54E
:103D70001D78012D10D00BDD1948FFF725FC194CDB
:103D800001008022200000F017FF022D01D070BD3D
:103D9000144C154BA364FAE7134B124C2360636079
:103DA000A360E36023616361A361E36123626362F3
:103DB000A362E36223636363A363E36323646364D3
:103DC000A364E36423656365A365E36523666366B3
:103DD000A366E36623676367A367E367A364D6E725
:103DE00053440000E0260020213F0010254A4B00EC
:103DF00094465B0D6344F0B504000D005A1C23DBB0
:103E00005A1C37D03422D21A002A1CDD3322D31A8E
:103E1000533A9A181CD401269640310001269E4040
:103E2000300024184D41002A1EDB02269640310046
:103E300002229A401000002342428B4116002B4080
:103E4000264030001900F0BDCB0F0020D907FAE75B
:103E500020260127F61AF74001269E40390030003F
:103E600024184D41002AE0DA20220226D21AD64038
:103E70003100DDE7CB0F044ADB071A4300201100B5
:103E8000E1E7C04601FCFFFF0000F03FF0B5C64689
:103E90000B000D0049000200040000B5490D30D0B0
:103EA0001D48091827D43426711A88464646100042
:103EB0001900002E1CDD20214942771825D4012647
:103EC000BE40310001274646B7403800002B06DAD5
:103ED00001246442E517A4185D4124184D410023D4
:103EE00042428B4126002C0016401C40300021002D
:103EF00080BCB846F0BD00200021002BF8DA07494D
:103F0000F6E7DB0F0020D907F2E72027BF1B0126C9
:103F1000FE403100D6E7C04601FCFFFF0000F0BFC5
:103F200007B5604601880A0A0230DF2AFAD1C9B211
:103F3000820804D3028840880004104300E000682F
:103F4000014A5050039007BDE02600200FB403BC87
:103F50000CBCF0B50124E407634000E0F0B50C0DA3
:103F6000CF0F661E3605891B640503D3C943404243
:103F700000D30131640D03D0661CF60A07D0E41BA0
:103F800000207F00791C89078912803C24031D0DC5
:103F9000DF0F6E1E36059B1B6D0503D3DB435242BC
:103FA00000D301336D0D03D06E1CF60A07D0ED1B54
:103FB00000227F007B1C9B079B12803D2D032F1B43
:103FC000661B58D4A446202E46DA20371400BC4085
:103FD0001D00BD40F24033412A4380185941CB0FA8
:103FE00005D0C943C043002264425041514162465A
:103FF0004D0D28D10D0D07D100281FD024194041A7
:104000004941013A0D0DF9D0640006D3013000D3C7
:104010000131002C01D140084000013A0BD4941C1E
:10402000E40A04D112051144DB071944F0BDD90795
:10403000204B194300E0D9070020F0BD0029DDD155
:10404000002CDBD1F0BD0132C6074008CD07284364
:104050004908002EE1D0D9E73C2E29DA203E40372E
:104060001400BC4000D00124F24014431A00BB40AD
:104070001C43D317ACE7AC46202F08DA20360400E7
:10408000B4400D00B540F84039412843A5E73C2F26
:104090000CDA203F40360400B44000D00124F84040
:1040A00004430800B1400C43C117EAE710001900AF
:1040B000002494E70000F07FF0B50C0D661E360575
:1040C000891BE60A6405640D02D0651CED0A04D064
:1040D000002001210905803C2403A4461C0D671E15
:1040E0003F05DB1BE70A6405640D02D0651CED0A81
:1040F00004D0002201231B05803C24037740644444
:1041000097B484B296B27443070C7E43150C6F4388
:1041100080B26843361802D3012000043F183004EF
:10412000350C00197D41844688B29AB250430C0C7C
:1041300062431F0C7C438EB27E43921902D3012648
:104140003604A4191604170C3618674101BC81B255
:104150009AB25143040C62431B0C5C4380B2584337
:10416000121802D30120000424181004130C401864
:1041700063412D185E410020474106BC88B293B2CE
:1041800058430C0C6343120C544389B251435B18DF
:1041900002D301210904641819041A0C0918624198
:1041A0006D1856410020474118BCF902720D1143A9
:1041B000F0026A0D1043ED020A0D03D16D19404162
:1041C0004941013B124E9B1B7600B3420ED26D005B
:1041D00007D30130002671416646354301D14008BE
:1041E00040001B05C918E4072144F0BD0BDA013378
:1041F00006D1013004D101314F0D01D04908F2E759
:10420000E1070020F0BD013631050020EBE700009A
:10421000FF030000F0B51C0D671E3F05DB1BE70A1E
:104220006405640D02D0661CF60A04D00022012346
:104230001B05803C2403D0252D060026F6432E6660
:104240001E096E66CE0FF619B44649004F0D02D016
:104250007E1CF60A03D000200021403F3F033E1B96
:10426000B600B444013F7F05C91B49082E6F0136D3
:1042700076089C02950D25437543ED137543AD13E8
:1042800001356D10F603761B0CB4CC02450D2C43A2
:10429000A2B2B3B25A43270C7B43350C6F43A4B28E
:1042A0006C431B1902D3012424043F191C041D0C68
:1042B000A4187D4124196D41009A91B2ACB26143BA
:1042C000170C7C432B0C5F4392B25A43A41802D3C1
:1042D00001221204BF182204230C52187B41019CB6
:1042E0006C431B19520ED9010A434401A01A81B232
:1042F000B2B2514303145A43360C734387B2774327
:10430000D617D21900277E4136049B191704160CC4
:104310007F185E417316ED18F30100268033754156
:10432000A90F06D16400690AE8055B0A184309D29F
:104330002FE00422944480337541A90AA8059B0A02
:10434000184326D3404149412404009A019B0D00A3
:104350005543641B4343E41A95B286B27543170C68
:104360007E43030C5F4392B25A43B61802D3012234
:104370001204BF183204330C52197B4152429C4143
:10438000002C02D40022013051414008CA071043DA
:10439000490802B06246D7079210084BD218084B62
:1043A0009A4203D212058918C919F0BD0020002ACB
:1043B00001DC3900F0BD01331905F5E7FD0300000C
:1043C000FE070000624618CA944600291ADAC0188F
:1043D00061415B463B415C46B4405246FA40224351
:1043E00044464D4662416B41904699462B46B34048
:1043F0003D41FC401C4352465B46A241AB419246C4
:104400009B467047C01AA1414B463B414C46B440C5
:104410004246FA40224354465D4662416B41924611
:104420009B462B46B3403D41FC401C4342464B4615
:10443000A241AB4190469946704700200021704749
:10444000002200B5203200F010F8080000BD002264
:1044500000B500F00CF8CA179A4200D100BDD8434D
:104460000121C907414000BD00220B15E5D410B55C
:10447000944600F0A5F81414013400DA0021CB179B
:10448000134C20476244343A0CD40C2A07DA040057
:104490009140904052422032D440214310BDD84335
:1044A000D94310BD203207D40C46944052422032EA
:1044B0001141D040204310BD0800C917203203D459
:1044C00052422032104110BD1800190010BD0000EA
:1044D000854400104A00520D144BD21A13DDFF2AF6
:1044E0001EDAD205CB0FDB071A43C300400F0903C6
:1044F000490A084310435B0001D301D001307047E3
:104500004308FBD2704702D0C80FC00770470A03A8
:1045100012130132F8D1420F072AF5D1012200E02F
:10452000FF22C80F00028018C005704780030000FA
:1045300000210A00002104E000210A00C11704E064
:104540000022002306E0C0460022CB175840594005
:10455000C01A994130B5184CA21A002903D10100A4
:1045600010D00020203A4C1512D104D2013A001884
:1045700049414C0DFAD3114CA24204D212058918BC
:10458000DB07C91830BDD243520D00200021F5E7EA
:1045900003D4013A00184941FBD50B324405C00A47
:1045A0004D052843C90A640003D0002460416141DD
:1045B000E1E7E0D34408F8E732040000FE0700001A
:1045C0000A0DCC0F531E1B05C91A520503D3C9434C
:1045D000404200D30131520D03D0531CDB0A07D0F7
:1045E000121B00206400611C89078912803A1203A3
:1045F000014BD21A70470000FF03000051434343B0
:10460000C9188C46110C83B24B4310B4040C61439F
:1046100092B280B2504362431C041B0C001910BCC0
:1046200059411304120CC0185141614470470000F5
:10463000484041404840064B5B681847044B1B68A4
:104640001847034BDB681847014B9B68184700006D
:10465000E027002007B548404140484001E0C046FF
:1046600007B54200120E03D0FF2A03D1420218D828
:10467000C00DC0054A00120E03D0FF2A03D14A0222
:104680000FD8C90DC9050122414005D4414001D5CB
:10469000814207BD884207BD0143491801D0C0438C
:1046A000001807BD00B5FFF7DBFF01D0002000BDFB
:1046B000012000BD00B5FFF7D3FF804100BDC0461B
:1046C00000B5FFF7CDFF01D9002000BD012000BDDE
:1046D00000B5FFF7BFFF01D9002000BD012000BDDC
:1046E00000B5FFF7B7FF804100BD491A002807D188
:1046F00008467047C10FC90700D54042002817D0AF
:10470000F44603B40B4B1B68984706BC81409E38A7
:104710004042803107D20B0607D04900490AC00544
:104720001043084360470130F8E7490A8902F5E77A
:104730007047000018F0022041000A0E80231B067B
:104740007E2A0BDD9E3A0BDAC1174002400818435F
:104750005242D04049000131484370470020704721
:10476000C00FC01801387047C0420DD300B54000DB
:104770004008002100F012F8002801D4404200BD9A
:104780008020000600BD0000034BDB69FC46184793
:104790001CDF3D4B00100000E0270020014B5B6A4E
:1047A00018470000E0270020014B1B6B1847000052
:1047B000E0270020034BDB6FFC4618477CDF554B9E
:1047C00000100000E0270020C11502D4054B9B69B2
:1047D0001847C843FF2801D1C0077047C817C00554
:1047E00070470000E02700204100090E862902DA08
:1047F000044BDB6B1847044900B500F083F902BC99
:104800008E46F5E7E0270020DB0FC9404100090E86
:10481000862902DA044B1B6C1847044900B500F0E6
:1048200071F902BC8E46F5E7E0270020DB0FC94096
:10483000014BDB6C18470000E0270020014B1B6D8B
:1048400018470000E0270020132310B512481C78F9
:10485000FEF7BAFE0100012C0AD003DD80220F48CA
:1048600000F0AAF90E48FEF7A7FE0E4B186010BD27
:104870000A4C5422200000F09FF90B4B6365A3659E
:10488000E36523666366A366E36623676367A367DE
:10489000E3672362E361E5E753460000E027002079
:1048A0004C33000018F00220114B001043001B0E87
:1048B0007F3B5A1C0FDB5A1C10D01722D21A002A39
:1048C00008DD1622D21A01239340181802239340C0
:1048D0005B4218407047C00FC007FBE7C00FC3071B
:1048E000FE2080051843F5E7420010B5031C0400C4
:1048F000120E11D07F3A0AD417218A1A002A05DD38
:1049000001209040002B0ADB4042204010BD0020D7
:10491000002BFBDA0348F9E7C30FD807F6E7441E7C
:10492000E418F1E7000080BF420010B5031C04004A
:10493000120E11D07F3A0AD417218A1A002A05DDF7
:1049400001209040002B0ADA4042204010BD002890
:1049500008DA80200006F9E7C30FD807F6E7441EFF
:10496000E418F1E7FE208005F0E7C046430070B58B
:104970001B0E822B04DD002819DBFE20800515E0CC
:10498000002B02D080231B04C018FFF751FFFE212B
:104990008905041CFFF74FFEFE21051C8905201C1C
:1049A000FFF74CFE011C281CFFF74BFE70BD0148B1
:1049B000FCE7C046000080BFF8B5454657464E4666
:1049C000DE46E0B5FF268846C50DC90D3540170007
:1049D000041C0E40002A01D000231360FF2D60D07C
:1049E000002E5ED0002D5FD0201CFF2E53D0731EF2
:1049F000AB4250DCE20F94468022120491466402DE
:104A0000640A1443424649465202520A11438946F7
:104A1000AB4251D06346002B58D000216442AD1BFD
:104A2000002D5CDD4B460120D9114042FEF722FEED
:104A30001D23834600219C462A000C2D00DD0C22FC
:104A400058466312944043436046A246801A03418D
:104A50004C465046914001335B105C435918041B8F
:104A6000AD1A002DE8DCA14537DC4B46E41AA14520
:104A700046DCE41A023163004B4519DC16D043468C
:104A8000002B00DA4942002F00D039609621200027
:104A9000891BFFF789FEF0BCBB46B246A946A0467B
:104AA000F8BDFF20C005F6E70020F4E7CB07E6D508
:104AB0004B460131E41AE2E78C42ECDD6346002B01
:104AC00013D14B002E000121E41AD8E7AD1B002DB5
:104AD000A8DC8C4211DA0021CDE7002CCBDA4B4662
:104AE000E41808D54C440239C5E74B0001212E00DB
:104AF0001C1B4942C3E70139BDE74B460021E41ABC
:104B00000131B8E710B50022FFF756FF10BDC046CF
:104B100007B5604601880A0A0230DF2AFAD1C9B215
:104B2000820804D3028840880004104300E0006833
:104B3000014A5050039007BDE02700200021C21514
:104B40008032803201D0024A1047002070470000B6
:104B5000CD2A0000C30FDB0741000A0E07D0FF2A51
:104B600008D00909054A89181943400770471900F8
:104B7000002070470249C918FAE700000000003819
:104B80000000F07F10B54EF0E7FD10BD10B54EF0FF
:104B90003BFB10BD10B54EF0E9FD10BD01480421EE
:104BA000014B1847E01D0020D9350010014B1B6850
:104BB00018470000E01D0020014B5B68184700000B
:104BC000E01D002010B5FFF7DDFF10BD10B5FFF7A9
:104BD000E1FF10BDF0B546464F46D6468046C0B50B
:104BE0000E00171E3FDD4B1E9946214B0125002468
:104BF00000209A460DE04B461B5D0D3B5A42534147
:104C0000325DDBB20A2A0BD02B00013401359F4202
:104C10001ADD002CEFD14346325D1B7C0A2AF3D10A
:104C2000002BF1D1A04204DA4346211A1B68301848
:104C30009847434650461B68022198470134280094
:104C40002B0001359F42E4DC874204DD4346391ADC
:104C50001B6830189847F619013E33780D3B5A42CD
:104C6000534142461374E0BCBA46B146A846F0BD73
:104C7000F48F0710F8B5CE4647460D0009680600C8
:104C800080B5802907D04B1C2B606D182E71C0BCDD
:104C9000B946B046F8BD134B1C68002C1BD0124B14
:104CA00098462B1D994602E0E468002C13D0276833
:104CB000002FF9D043461B68002B01D09C42F3D152
:104CC000637C2A68002B09D020004946FFF782FF49
:104CD000E468002CEBD101230021D5E71100484600
:104CE000B847E1E764E902206CE90220F0B55746D5
:104CF0004546DE464E46D023E0B51B061C68354BC4
:104D000083B007000D00180001A990469A4650F0A4
:104D10000BFB8146002807D1019B9C4204D05046E2
:104D200050F04AFB012399466B1C03D138004FF029
:104D300087FA0500284B1C68002C2FD00A23274E29
:104D40009B4602E0E468002C28D02268002AF9D0B3
:104D50003368002B01D0A342F4D1637C002B27D011
:104D60002A0039002000FFF735FF4346002BE9D029
:104D70006B465A461A71637C002B1DD0237C002B96
:104D800023D00121236801A898476B461B790D3B6E
:104D90005A4253412374E468002CD6D14B46002B71
:104DA0000FD103B0F0BCBB46B246A946A046F0BD49
:104DB000290038009047D8E70121236801A89847C7
:104DC000C0E7504650F060FAEBE702210448236840
:104DD0009847DAE7AC26002064E902206CE902205B
:104DE000F48F071010B582B06B4604000022D81D66
:104DF00001210470FFF77AFF200002B010BDC04609
:104E000070B504004FF01CFA0122010005002000DB
:104E1000FFF76CFF084B1C68002C06D06368002B62
:104E200005D09847E468002CF8D1280070BDE468EC
:104E3000002CF3D1F9E7C04664E90220F0B55746EB
:104E40004E46DE464546E0B50E00170083B000280A
:104E500030D1254B254D1A685B6801929946244B49
:104E60009B46244B9A465B461B689846002B36D0DF
:104E70001C0002E0E468002C13D02B68002B01D04A
:104E8000A342F7D1A368002BF4D039003000984733
:104E90000028EFDD03B0F0BCBB46B246A946A046F1
:104EA000F0BD53465B6A9945DDD852460199926A36
:104EB0008A4202D301204042ECE79945FAD14346A9
:104EC000002BD0D10B4A536A9945FCD8916A0198BE
:104ED0008142EFD29945F6D001204042DAE75346AD
:104EE0005B6A9945E1D9EDE7188D07106CE902205E
:104EF00064E902200040054010B50B0014000128B1
:104F000006D1180000222100FFF7F0FE200010BD9E
:104F100001204042FBE7C0460D4A1368002B13D026
:104F2000834202D109E0984208D01A00DB68002BC6
:104F3000F9D1002900D0D06070471A000029FBD1B8
:104F4000DB68D360C160F7E70029F5D01060F3E7B4
:104F500064E90220F0B54646D6464F46D023C0B598
:104F60001B061F68314BA2B004000D00180001A9F8
:104F7000984650F0D9F9061E06D1019B9F4203D0F6
:104F8000404650F019FA01368422002101A8FFF7AB
:104F90000DFE2B002200264801A9FEF7D7FA019B3F
:104FA0000700002B15D1234B1C68002C06D063682A
:104FB000002B0CD09847E468002CF8D1002E2FD19C
:104FC000380022B0E0BCBA46B146A846F0BDE4685D
:104FD000EBE7184B1D689A46002D25D0164B9946D5
:104FE00002E0ED68002D13D02C68002CF9D04B4660
:104FF0001B68002B01D09D42F3D16B7C019A002BE2
:105000000AD0280002A9FFF7E5FDED68002DEBD1DD
:10501000534601951C68C8E7110002A8A047E0E7C5
:10502000404650F031F9CBE70195C7E7AC260020A8
:10503000754C001064E902206CE902200FB400B541
:1050400083B004A901C90191FFF784FF03B008BC34
:1050500004B0184710B500F03DF800F01BF910BD82
:10506000F0B5002910D045180D272021094B0A4A18
:1050700000269E5F0478A64207D093691942FCD1AE
:1050800001301460A842F5D1F0BD93691942FCD1FA
:105090001760F2E734F002200040034030B504000E
:1050A0000D000020002910DD1021094A013C936900
:1050B000194208D1013093691942FCD11368235475
:1050C0008542F4D130BD0028FCD103204042F9E7ED
:1050D00000400340E12110B50A4B49021B780A4BFE
:1050E0000A481B78FBF7AAFB02210020FBF7E2FA33
:1050F00002210120FBF7DEFA01210548FFF70CFF32
:1051000010BDC046B8100810BC1008100040034085
:10511000F01D002070B5184C82B006000D00200074
:1051200001A950F001F9002808D1D0231B061B6803
:10513000019A9A421CD0200050F03EF9002001F064
:105140008DFB002807D103256D42200050F09CF80C
:10515000280002B070BD002001F09AFB0028F2D0B8
:105160002A003100002001F0A1FB051EEBD0ECE786
:1051700003256D42ECE7C0461CF00220F0B5DE4688
:105180004F464646C0B5334B82B081460D001800ED
:1051900001A99B4650F0C8F8002808D1D0231B066F
:1051A0001B68019A9A424FD0584650F005F90020EA
:1051B00001F054FB00283FD00024002D41DD264E95
:1051C00011E04B460020191901F0FCFB804600F06D
:1051D000B9FC002001F0A4FBFBF7FAFF306071601E
:1051E0004444AC422DDA002001F008FC2F1B0200E1
:1051F000B84200DD3A00002AE3D100F0A3FC002011
:1052000001F08EFB002001F029FB002819D00020BE
:1052100001F0F4FB0028E4D1FBF7DAFF3268736891
:105220000F00002184460D4812184B419F4208D8B8
:10523000D7D19445D5D904E000200021064B186051
:105240005960584650F020F802B0E0BCBB46B14669
:10525000A846F0BD1CF00220D826002020A107009F
:105260001F2010B5FCF720FDFA200021800010BDA2
:1052700010B5074C0021200050F056F8002800D14E
:1052800010BD00F05FFC20004FF0FEFFF8E7C046C5
:105290001CF0022070B51E4B84B01B7801F080FD1D
:1052A0001F201C49FCF710FD01211F20FCF7EAFC20
:1052B0001948FCF775F8FBF78DFD0600FBF788FF32
:1052C000FA2204000D000023920012196B4199424A
:1052D00014D811D001210291002101910F49300011
:1052E0000091FBF77DFD0400631E9C41E4B20028A1
:1052F00008D1200004B070BD9042EBD90122524287
:10530000D317E7E701210648FFF706FEF1E7C0469D
:10531000C0100810715200101CF0022061520010E1
:10532000041E002000487047D890071000487047BE
:105330008C90071030B5002806D1C1241148124BBB
:10534000A4004380048030BD042819D80F4B80008E
:10535000C5580C480023811C04E001330A80023147
:10536000132B0AD0EA5CDCB2002AF6D1C023013448
:10537000E4B264009B001C43E4E7CA24A400E1E714
:105380000020E0E73CE9022009040000EC9007104F
:105390009823F0B54546DE4657464E46424AE0B5AC
:1053A000D358802498461D00102385B003934346AC
:1053B00064022540234214D00121392000223B4BB6
:1053C00025001954597147315A541A750020013279
:1053D000374901F029F88022364B92021A65364B84
:1053E00003934346DB060DD4802342465B011A42F9
:1053F00038D1454552D105B0F0BCBB46B246A946AE
:10540000A046F0BD284B9F6D9A46002F24D0294B13
:10541000002501249B4603E064000135202D1BD0AC
:105420002742F9D05346DB6D5B46682601229C6516
:105430006B085E4334239146AA435343F6181B4B33
:105440009C466644300000F03DFA00281AD1A7437C
:1054500001356400002FE1D1802342465B01039DAA
:105460001A42C6D00022154900200A700E491D4379
:105470000A600132012100F067FF80220D4B120308
:105480001A65B6E74B46F269317900200093002394
:1054900000F0F2FF300000F0E9F9D8E74146084893
:1054A0006940FCF711FAC0460000115074E902206F
:1054B0000000105000301150100001003CF002209C
:1054C0000091071010B501210520FCF7DBFB10BD92
:1054D000094B10B5012219703921002307484254A5
:1054E0004271473283540375002200213430013366
:1054F00000F068FA10BDC0463CF0022074E90220BA
:105500008022024B5202DA647047C04600201150DC
:1055100070B5050000F082F905201C49FCF7D4FBAA
:10552000D0221B4C00212000D200FFF73FFB0022BD
:10553000184B19491A70194B402019603526012360
:105540001749E3706371E062E1600A60A3554C366D
:10555000FF3626870026206624302654114912483B
:10556000A26021612370E28620640260E26334322B
:10557000A3540E4A6164136480239B05D364902373
:105580000B492800D150FFF7BBFF70BD91530010AD
:1055900074E902203CF0022080011050F8EF022054
:1055A0008400105000011050800010500000115075
:1055B000101001000B785B0602D14B78052B09D047
:1055C000012139200022064B5971195447311A75AF
:1055D0005A547047034B1A78034B1A60F0E7C046E1
:1055E00074E902203CF0022000001150F8B5474653
:1055F000CE46072380B54879CC780A7903408F7866
:10560000A4071B021343A20F944614007F207AB212
:105610009146682134223840FE09414372435218B2
:105620004946C9433C4DC90FAA18D1704142414176
:105630001771567090705171012C5FD0402B61D85A
:1056400034226821724341435218AA181100674658
:1056500030310F704946D36200293EDB2F4FC10025
:10566000BC4600276144D1600F6000283ED02C4F1B
:10567000C100BC466144916068272A4A47431168CB
:1056800090463422BC4672436244AA181161402BF2
:1056900000D240233F22CB18134201D09343403322
:1056A00042461360204B682259403423A4060C4321
:1056B000A021734342439B18EB189B6809060C43D7
:1056C0001C6034235E4334335843673B3618AB5574
:1056D0000120C0BCB946B046F8BD144FC100BC465D
:1056E00000276144D1600F6000280FD134230022CD
:1056F0007343EB189A600E4A1A61E2E78022D200E7
:1057000093429DD319000B48FCF7DEF8064FC10009
:10571000BC4661449160AFE774E9022084001050F8
:1057200004001050F8EF02200000105080001050CC
:10573000000110501491071010B50C003420110016
:105740001A00E30958437F23234068245C43044B39
:105750000019C018012300F035F9012010BDC04622
:1057600074E9022070B57F25342068230D40CC09F0
:105770006B4360430C4EC01830188378002B05D162
:1057800043785A425341094A0133936680220849BB
:10579000120100F075F8342101234C4334314D439C
:1057A00064193419237570BD74E90220002011506A
:1057B000FFF7FFFF70B57F25342068230D40CC092B
:1057C0006B4360430C4EC01830188378002B05D112
:1057D00043785A425341094A0133936600220849EB
:1057E00000F04EF8342100234C4334314D4364190A
:1057F0003419237570BDC04674E902200030115081
:10580000FFF7FFFF034B8000C25810B50248FCF7BA
:105810005BF8C046181E00203C91071080220E4BFA
:10582000520410B51A600D4B0D491A6010008B68B8
:105830009843FBD10B4C9C2200212000FFF7B6F9C6
:105840008022002152010848FFF7B0F9092363675D
:105850000333A36710BDC04600E0004000F00040E5
:1058600000C0004000001150000010500023002133
:105870003222838281548361C361036283627047F1
:1058800010B5C368002901D01C682140002A11D03E
:105890008024E400114322420CD01A6822420BD12A
:1058A000074A0A401A60FFE7FFE7FFE7FFE7FFE765
:1058B000FFE7C368196010BD81784078FFF7A2FF49
:1058C000FFFBFFFFF8B5467D0400002E00D168E025
:1058D000C368C0781D68AD05AD0D002843D1E369EC
:1058E000E918E161A269551A402D2ED86B189B1A50
:1058F0005F427B412427DBB22562E3558A424DD3C8
:105900004AD0002823D08022D2002A43617900297E
:1059100002D0802080010243012041406171002BB0
:1059200002D08023DB011A43E1680B685B053DD49C
:10593000204B13400B60FFE7FFE7FFE7FFE7FFE7C0
:10594000FFE70020E3681A60F8BD4025CEE7A36AB0
:105950002A009C4620696144FFF72EF98422120236
:10596000E35D2A43D2E7E269A36A944663441800E0
:1059700021692A00FFF720F9E369E078E918E1617D
:105980000028AFD0236A9D42ACD2002301222362BB
:105990002433A161E254D7E73000D5E70648FBF78E
:1059A00093FF8178054A0648FBF78EFFA17860785F
:1059B000FFF728FFFFFBFFFF88910710181E00204C
:1059C0005C91071070B50400002B49D0437D002B7B
:1059D00003D000230375322023540023A261E36126
:1059E000151C402A31D80123ADB2521B63755342B6
:1059F0005A41242625230020D2B22562A162A25555
:105A0000E054E378002B22D08023DB002B43617924
:105A1000002902D0802080010343012041406171B0
:105A2000002A02D08022D2011343E1680A6852059D
:105A300019D40F4A1A400A60FFE7FFE7FFE7FFE7C4
:105A4000FFE7FFE7E268136070BD4025CBE72A005F
:105A50002069FFF7B1F884231B02A25D2B43D6E730
:105A6000FFF730FFF0E7A1786078FFF7CBFEC04684
:105A7000FFFBFFFF024B5878431E9841C0B27047AE
:105A8000FCE70220024B18784007C00F7047C04661
:105A9000FCE70220F8B5372200212148FFF786F8FD
:105AA000204C2000FBF77CFC1F4B1C601F4C20008F
:105AB0001830FBF783FC200001F070FB1C4B1D4EDF
:105AC0001D4D1C60002E04D0280000E000BF1B4BC1
:105AD000186000242B78002E19D0194E174F9C42C5
